{
  "contracts/QuizFactory.sol": {
    "QuizFactory": {
      "abi": [
        {
          "anonymous": false,
          "inputs": [
            {
              "indexed": true,
              "internalType": "contract Quiz",
              "name": "",
              "type": "address"
            }
          ],
          "name": "QuizCreated",
          "type": "event"
        },
        {
          "inputs": [
            {
              "internalType": "string",
              "name": "_question",
              "type": "string"
            },
            {
              "internalType": "string",
              "name": "_answer",
              "type": "string"
            },
            {
              "internalType": "string[]",
              "name": "_answers",
              "type": "string[]"
            },
            {
              "internalType": "string",
              "name": "_salt",
              "type": "string"
            }
          ],
          "name": "createQuiz",
          "outputs": [],
          "stateMutability": "payable",
          "type": "function"
        },
        {
          "inputs": [],
          "name": "getAllQuizes",
          "outputs": [
            {
              "internalType": "contract Quiz[]",
              "name": "",
              "type": "address[]"
            }
          ],
          "stateMutability": "view",
          "type": "function"
        }
      ],
      "evm": {
        "bytecode": {
          "linkReferences": {},
          "object": "608060405234801561001057600080fd5b506120c0806100206000396000f3fe6080604052600436106200002b5760003560e01c80625bff801462000030578063c0adff7d1462000050575b600080fd5b6200004e600480360381019062000048919062000482565b62000080565b005b3480156200005d57600080fd5b506200006862000172565b604051620000779190620006b8565b60405180910390f35b60003485858585604051620000959062000202565b620000a4949392919062000887565b6040518091039082f0905080158015620000c2573d6000803e3d6000fd5b5090506000819080600181540180825580915050600190039060005260206000200160009091909190916101000a81548173ffffffffffffffffffffffffffffffffffffffff021916908373ffffffffffffffffffffffffffffffffffffffff1602179055508073ffffffffffffffffffffffffffffffffffffffff167f0265693c8d95ffd63866cae4d18980d296337fa815a89b42926fc64fda65729c60405160405180910390a25050505050565b60606000805480602002602001604051908101604052809291908181526020018280548015620001f857602002820191906000526020600020905b8160009054906101000a900473ffffffffffffffffffffffffffffffffffffffff1673ffffffffffffffffffffffffffffffffffffffff1681526020019060010190808311620001ad575b5050505050905090565b61179a80620008f183390190565b6000604051905090565b600080fd5b600080fd5b600080fd5b600080fd5b6000601f19601f8301169050919050565b7f4e487b7100000000000000000000000000000000000000000000000000000000600052604160045260246000fd5b62000279826200022e565b810181811067ffffffffffffffff821117156200029b576200029a6200023f565b5b80604052505050565b6000620002b062000210565b9050620002be82826200026e565b919050565b600067ffffffffffffffff821115620002e157620002e06200023f565b5b620002ec826200022e565b9050602081019050919050565b82818337600083830152505050565b60006200031f6200031984620002c3565b620002a4565b9050828152602081018484840111156200033e576200033d62000229565b5b6200034b848285620002f9565b509392505050565b600082601f8301126200036b576200036a62000224565b5b81356200037d84826020860162000308565b91505092915050565b600067ffffffffffffffff821115620003a457620003a36200023f565b5b602082029050602081019050919050565b600080fd5b6000620003d1620003cb8462000386565b620002a4565b90508083825260208201905060208402830185811115620003f757620003f6620003b5565b5b835b818110156200044557803567ffffffffffffffff81111562000420576200041f62000224565b5b8086016200042f898262000353565b85526020850194505050602081019050620003f9565b5050509392505050565b600082601f83011262000467576200046662000224565b5b813562000479848260208601620003ba565b91505092915050565b600080600080608085870312156200049f576200049e6200021a565b5b600085013567ffffffffffffffff811115620004c057620004bf6200021f565b5b620004ce8782880162000353565b945050602085013567ffffffffffffffff811115620004f257620004f16200021f565b5b620005008782880162000353565b935050604085013567ffffffffffffffff8111156200052457620005236200021f565b5b62000532878288016200044f565b925050606085013567ffffffffffffffff8111156200055657620005556200021f565b5b620005648782880162000353565b91505092959194509250565b600081519050919050565b600082825260208201905092915050565b6000819050602082019050919050565b600073ffffffffffffffffffffffffffffffffffffffff82169050919050565b6000819050919050565b6000620005e7620005e1620005db846200059c565b620005bc565b6200059c565b9050919050565b6000620005fb82620005c6565b9050919050565b60006200060f82620005ee565b9050919050565b620006218162000602565b82525050565b600062000635838362000616565b60208301905092915050565b6000602082019050919050565b60006200065b8262000570565b6200066781856200057b565b935062000674836200058c565b8060005b83811015620006ab5781516200068f888262000627565b97506200069c8362000641565b92505060018101905062000678565b5085935050505092915050565b60006020820190508181036000830152620006d481846200064e565b905092915050565b600081519050919050565b600082825260208201905092915050565b60005b8381101562000718578082015181840152602081019050620006fb565b60008484015250505050565b60006200073182620006dc565b6200073d8185620006e7565b93506200074f818560208601620006f8565b6200075a816200022e565b840191505092915050565b600081519050919050565b600082825260208201905092915050565b6000819050602082019050919050565b600082825260208201905092915050565b6000620007af82620006dc565b620007bb818562000791565b9350620007cd818560208601620006f8565b620007d8816200022e565b840191505092915050565b6000620007f18383620007a2565b905092915050565b6000602082019050919050565b6000620008138262000765565b6200081f818562000770565b935083602082028501620008338562000781565b8060005b85811015620008755784840389528151620008538582620007e3565b94506200086083620007f9565b925060208a0199505060018101905062000837565b50829750879550505050505092915050565b60006080820190508181036000830152620008a3818762000724565b90508181036020830152620008b9818662000724565b90508181036040830152620008cf818562000806565b90508181036060830152620008e5818462000724565b90509594505050505056fe60806040526040516200179a3803806200179a833981810160405281019062000029919062000485565b662386f26fc10000341162000075576040517f08c379a00000000000000000000000000000000000000000000000000000000081526004016200006c90620005fa565b60405180910390fd5b836000908162000086919062000867565b50620000998382620000d460201b60201c565b6001819055508160029080519060200190620000b792919062000109565b508060039081620000c9919062000867565b5050505050620009b8565b60008183604051602001620000eb92919062000990565b60405160208183030381529060405280519060200120905092915050565b82805482825590600052602060002090810192821562000156579160200282015b828111156200015557825182908162000144919062000867565b50916020019190600101906200012a565b5b50905062000165919062000169565b5090565b5b808211156200018d576000818162000183919062000191565b506001016200016a565b5090565b5080546200019f9062000656565b6000825580601f10620001b35750620001d4565b601f016020900490600052602060002090810190620001d39190620001d7565b5b50565b5b80821115620001f2576000816000905550600101620001d8565b5090565b6000604051905090565b600080fd5b600080fd5b600080fd5b600080fd5b6000601f19601f8301169050919050565b7f4e487b7100000000000000000000000000000000000000000000000000000000600052604160045260246000fd5b6200025f8262000214565b810181811067ffffffffffffffff8211171562000281576200028062000225565b5b80604052505050565b600062000296620001f6565b9050620002a4828262000254565b919050565b600067ffffffffffffffff821115620002c757620002c662000225565b5b620002d28262000214565b9050602081019050919050565b60005b83811015620002ff578082015181840152602081019050620002e2565b60008484015250505050565b6000620003226200031c84620002a9565b6200028a565b9050828152602081018484840111156200034157620003406200020f565b5b6200034e848285620002df565b509392505050565b600082601f8301126200036e576200036d6200020a565b5b8151620003808482602086016200030b565b91505092915050565b600067ffffffffffffffff821115620003a757620003a662000225565b5b602082029050602081019050919050565b600080fd5b6000620003d4620003ce8462000389565b6200028a565b90508083825260208201905060208402830185811115620003fa57620003f9620003b8565b5b835b818110156200044857805167ffffffffffffffff8111156200042357620004226200020a565b5b80860162000432898262000356565b85526020850194505050602081019050620003fc565b5050509392505050565b600082601f8301126200046a57620004696200020a565b5b81516200047c848260208601620003bd565b91505092915050565b60008060008060808587031215620004a257620004a162000200565b5b600085015167ffffffffffffffff811115620004c357620004c262000205565b5b620004d18782880162000356565b945050602085015167ffffffffffffffff811115620004f557620004f462000205565b5b620005038782880162000356565b935050604085015167ffffffffffffffff81111562000527576200052662000205565b5b620005358782880162000452565b925050606085015167ffffffffffffffff81111562000559576200055862000205565b5b620005678782880162000356565b91505092959194509250565b600082825260208201905092915050565b7f546865204574682073656e74206d757374206265206174206c6561737420302e60008201527f3031000000000000000000000000000000000000000000000000000000000000602082015250565b6000620005e260228362000573565b9150620005ef8262000584565b604082019050919050565b600060208201905081810360008301526200061581620005d3565b9050919050565b600081519050919050565b7f4e487b7100000000000000000000000000000000000000000000000000000000600052602260045260246000fd5b600060028204905060018216806200066f57607f821691505b60208210810362000685576200068462000627565b5b50919050565b60008190508160005260206000209050919050565b60006020601f8301049050919050565b600082821b905092915050565b600060088302620006ef7fffffffffffffffffffffffffffffffffffffffffffffffffffffffffffffffff82620006b0565b620006fb8683620006b0565b95508019841693508086168417925050509392505050565b6000819050919050565b6000819050919050565b600062000748620007426200073c8462000713565b6200071d565b62000713565b9050919050565b6000819050919050565b620007648362000727565b6200077c62000773826200074f565b848454620006bd565b825550505050565b600090565b6200079362000784565b620007a081848462000759565b505050565b5b81811015620007c857620007bc60008262000789565b600181019050620007a6565b5050565b601f8211156200081757620007e1816200068b565b620007ec84620006a0565b81016020851015620007fc578190505b620008146200080b85620006a0565b830182620007a5565b50505b505050565b600082821c905092915050565b60006200083c600019846008026200081c565b1980831691505092915050565b600062000857838362000829565b9150826002028217905092915050565b62000872826200061c565b67ffffffffffffffff8111156200088e576200088d62000225565b5b6200089a825462000656565b620008a7828285620007cc565b600060209050601f831160018114620008df5760008415620008ca578287015190505b620008d6858262000849565b86555062000946565b601f198416620008ef866200068b565b60005b828110156200091957848901518255600182019150602085019450602081019050620008f2565b8683101562000939578489015162000935601f89168262000829565b8355505b6001600288020188555050505b505050505050565b600081905092915050565b600062000966826200061c565b6200097281856200094e565b935062000984818560208601620002df565b80840191505092915050565b60006200099e828562000959565b9150620009ac828462000959565b91508190509392505050565b610dd280620009c86000396000f3fe6080604052600436106100595760003560e01c80633fad9ae0146100db5780634eee59b31461010657806370740ac9146101225780638577db431461012c578063c793fcf914610157578063dfbf53ae14610182576100d6565b366100d657662386f26fc1000034116100a7576040517f08c379a000000000000000000000000000000000000000000000000000000000815260040161009e906107c2565b60405180910390fd5b347f44863bc9b335caf97ca3a3ab6fb67776965a88292ed53b0679f8eae4a67b630c60405160405180910390a2005b600080fd5b3480156100e757600080fd5b506100f06101ad565b6040516100fd9190610861565b60405180910390f35b610120600480360381019061011b91906108f2565b61023b565b005b61012a610485565b005b34801561013857600080fd5b50610141610605565b60405161014e9190610958565b60405180910390f35b34801561016357600080fd5b5061016c61060d565b6040516101799190610a7f565b60405180910390f35b34801561018e57600080fd5b506101976106e6565b6040516101a49190610ae2565b60405180910390f35b600080546101ba90610b2c565b80601f01602080910402602001604051908101604052809291908181526020018280546101e690610b2c565b80156102335780601f1061020857610100808354040283529160200191610233565b820191906000526020600020905b81548152906001019060200180831161021657829003601f168201915b505050505081565b600073ffffffffffffffffffffffffffffffffffffffff16600460009054906101000a900473ffffffffffffffffffffffffffffffffffffffff1673ffffffffffffffffffffffffffffffffffffffff16146102cc576040517f08c379a00000000000000000000000000000000000000000000000000000000081526004016102c390610bcf565b60405180910390fd5b6001546103a783838080601f016020809104026020016040519081016040528093929190818152602001838380828437600081840152601f19601f820116905080830192505050505050506003805461032490610b2c565b80601f016020809104026020016040519081016040528092919081815260200182805461035090610b2c565b801561039d5780601f106103725761010080835404028352916020019161039d565b820191906000526020600020905b81548152906001019060200180831161038057829003601f168201915b505050505061070c565b0361043d576103b4610605565b3373ffffffffffffffffffffffffffffffffffffffff167f1b52b6bd5e988e46aa2a39e8d112f1af5047d215d44356910e9f9c79671031a460405160405180910390a333600460006101000a81548173ffffffffffffffffffffffffffffffffffffffff021916908373ffffffffffffffffffffffffffffffffffffffff160217905550610481565b3373ffffffffffffffffffffffffffffffffffffffff167fd5460701e04f1a04b5a6fc14ece043c4fde3a641922aed43b4aa6aa97066e76a60405160405180910390a25b5050565b600460009054906101000a900473ffffffffffffffffffffffffffffffffffffffff1673ffffffffffffffffffffffffffffffffffffffff163373ffffffffffffffffffffffffffffffffffffffff1614610515576040517f08c379a000000000000000000000000000000000000000000000000000000000815260040161050c90610c3b565b60405180910390fd5b600061051f610605565b1161055f576040517f08c379a000000000000000000000000000000000000000000000000000000000815260040161055690610ca7565b60405180910390fd5b6000600460009054906101000a900473ffffffffffffffffffffffffffffffffffffffff1673ffffffffffffffffffffffffffffffffffffffff166105a2610605565b6040516105ae90610cf8565b60006040518083038185875af1925050503d80600081146105eb576040519150601f19603f3d011682016040523d82523d6000602084013e6105f0565b606091505b505090508061060257610601610d0d565b5b50565b600047905090565b60606002805480602002602001604051908101604052809291908181526020016000905b828210156106dd57838290600052602060002001805461065090610b2c565b80601f016020809104026020016040519081016040528092919081815260200182805461067c90610b2c565b80156106c95780601f1061069e576101008083540402835291602001916106c9565b820191906000526020600020905b8154815290600101906020018083116106ac57829003601f168201915b505050505081526020019060010190610631565b50505050905090565b600460009054906101000a900473ffffffffffffffffffffffffffffffffffffffff1681565b60008183604051602001610721929190610d78565b60405160208183030381529060405280519060200120905092915050565b600082825260208201905092915050565b7f546865204574682073656e74206d757374206265206174206c6561737420302e60008201527f3031000000000000000000000000000000000000000000000000000000000000602082015250565b60006107ac60228361073f565b91506107b782610750565b604082019050919050565b600060208201905081810360008301526107db8161079f565b9050919050565b600081519050919050565b60005b8381101561080b5780820151818401526020810190506107f0565b60008484015250505050565b6000601f19601f8301169050919050565b6000610833826107e2565b61083d818561073f565b935061084d8185602086016107ed565b61085681610817565b840191505092915050565b6000602082019050818103600083015261087b8184610828565b905092915050565b600080fd5b600080fd5b600080fd5b600080fd5b600080fd5b60008083601f8401126108b2576108b161088d565b5b8235905067ffffffffffffffff8111156108cf576108ce610892565b5b6020830191508360018202830111156108eb576108ea610897565b5b9250929050565b6000806020838503121561090957610908610883565b5b600083013567ffffffffffffffff81111561092757610926610888565b5b6109338582860161089c565b92509250509250929050565b6000819050919050565b6109528161093f565b82525050565b600060208201905061096d6000830184610949565b92915050565b600081519050919050565b600082825260208201905092915050565b6000819050602082019050919050565b600082825260208201905092915050565b60006109bb826107e2565b6109c5818561099f565b93506109d58185602086016107ed565b6109de81610817565b840191505092915050565b60006109f583836109b0565b905092915050565b6000602082019050919050565b6000610a1582610973565b610a1f818561097e565b935083602082028501610a318561098f565b8060005b85811015610a6d5784840389528151610a4e85826109e9565b9450610a59836109fd565b925060208a01995050600181019050610a35565b50829750879550505050505092915050565b60006020820190508181036000830152610a998184610a0a565b905092915050565b600073ffffffffffffffffffffffffffffffffffffffff82169050919050565b6000610acc82610aa1565b9050919050565b610adc81610ac1565b82525050565b6000602082019050610af76000830184610ad3565b92915050565b7f4e487b7100000000000000000000000000000000000000000000000000000000600052602260045260246000fd5b60006002820490506001821680610b4457607f821691505b602082108103610b5757610b56610afd565b5b50919050565b7f546865207175697a2068617320616c7265616479206265656e2067756573736560008201527f6421000000000000000000000000000000000000000000000000000000000000602082015250565b6000610bb960228361073f565b9150610bc482610b5d565b604082019050919050565b60006020820190508181036000830152610be881610bac565b9050919050565b7f596f7520617265206e6f74207468652077696e6e657200000000000000000000600082015250565b6000610c2560168361073f565b9150610c3082610bef565b602082019050919050565b60006020820190508181036000830152610c5481610c18565b9050919050565b7f546865207175697a2072657761726420706f6f6c20697320656d707479000000600082015250565b6000610c91601d8361073f565b9150610c9c82610c5b565b602082019050919050565b60006020820190508181036000830152610cc081610c84565b9050919050565b600081905092915050565b50565b6000610ce2600083610cc7565b9150610ced82610cd2565b600082019050919050565b6000610d0382610cd5565b9150819050919050565b7f4e487b7100000000000000000000000000000000000000000000000000000000600052600160045260246000fd5b600081905092915050565b6000610d52826107e2565b610d5c8185610d3c565b9350610d6c8185602086016107ed565b80840191505092915050565b6000610d848285610d47565b9150610d908284610d47565b9150819050939250505056fea264697066735822122012316fd9fbe2c68edab9a26a8b4e4c93a5629102d2e5cf554ec2c6ba1779091e64736f6c63430008180033a2646970667358221220ee49bffe1b52558eb886678add1f35d0f18fc7e2b27b98eca80e7117d8a2212464736f6c63430008180033",
          "opcodes": "PUSH1 0x80 PUSH1 0x40 MSTORE CALLVALUE DUP1 ISZERO PUSH2 0x10 JUMPI PUSH1 0x0 DUP1 REVERT JUMPDEST POP PUSH2 0x20C0 DUP1 PUSH2 0x20 PUSH1 0x0 CODECOPY PUSH1 0x0 RETURN INVALID PUSH1 0x80 PUSH1 0x40 MSTORE PUSH1 0x4 CALLDATASIZE LT PUSH3 0x2B JUMPI PUSH1 0x0 CALLDATALOAD PUSH1 0xE0 SHR DUP1 PUSH3 0x5BFF80 EQ PUSH3 0x30 JUMPI DUP1 PUSH4 0xC0ADFF7D EQ PUSH3 0x50 JUMPI JUMPDEST PUSH1 0x0 DUP1 REVERT JUMPDEST PUSH3 0x4E PUSH1 0x4 DUP1 CALLDATASIZE SUB DUP2 ADD SWAP1 PUSH3 0x48 SWAP2 SWAP1 PUSH3 0x482 JUMP JUMPDEST PUSH3 0x80 JUMP JUMPDEST STOP JUMPDEST CALLVALUE DUP1 ISZERO PUSH3 0x5D JUMPI PUSH1 0x0 DUP1 REVERT JUMPDEST POP PUSH3 0x68 PUSH3 0x172 JUMP JUMPDEST PUSH1 0x40 MLOAD PUSH3 0x77 SWAP2 SWAP1 PUSH3 0x6B8 JUMP JUMPDEST PUSH1 0x40 MLOAD DUP1 SWAP2 SUB SWAP1 RETURN JUMPDEST PUSH1 0x0 CALLVALUE DUP6 DUP6 DUP6 DUP6 PUSH1 0x40 MLOAD PUSH3 0x95 SWAP1 PUSH3 0x202 JUMP JUMPDEST PUSH3 0xA4 SWAP5 SWAP4 SWAP3 SWAP2 SWAP1 PUSH3 0x887 JUMP JUMPDEST PUSH1 0x40 MLOAD DUP1 SWAP2 SUB SWAP1 DUP3 CREATE SWAP1 POP DUP1 ISZERO DUP1 ISZERO PUSH3 0xC2 JUMPI RETURNDATASIZE PUSH1 0x0 DUP1 RETURNDATACOPY RETURNDATASIZE PUSH1 0x0 REVERT JUMPDEST POP SWAP1 POP PUSH1 0x0 DUP2 SWAP1 DUP1 PUSH1 0x1 DUP2 SLOAD ADD DUP1 DUP3 SSTORE DUP1 SWAP2 POP POP PUSH1 0x1 SWAP1 SUB SWAP1 PUSH1 0x0 MSTORE PUSH1 0x20 PUSH1 0x0 KECCAK256 ADD PUSH1 0x0 SWAP1 SWAP2 SWAP1 SWAP2 SWAP1 SWAP2 PUSH2 0x100 EXP DUP2 SLOAD DUP2 PUSH20 0xFFFFFFFFFFFFFFFFFFFFFFFFFFFFFFFFFFFFFFFF MUL NOT AND SWAP1 DUP4 PUSH20 0xFFFFFFFFFFFFFFFFFFFFFFFFFFFFFFFFFFFFFFFF AND MUL OR SWAP1 SSTORE POP DUP1 PUSH20 0xFFFFFFFFFFFFFFFFFFFFFFFFFFFFFFFFFFFFFFFF AND PUSH32 0x265693C8D95FFD63866CAE4D18980D296337FA815A89B42926FC64FDA65729C PUSH1 0x40 MLOAD PUSH1 0x40 MLOAD DUP1 SWAP2 SUB SWAP1 LOG2 POP POP POP POP POP JUMP JUMPDEST PUSH1 0x60 PUSH1 0x0 DUP1 SLOAD DUP1 PUSH1 0x20 MUL PUSH1 0x20 ADD PUSH1 0x40 MLOAD SWAP1 DUP2 ADD PUSH1 0x40 MSTORE DUP1 SWAP3 SWAP2 SWAP1 DUP2 DUP2 MSTORE PUSH1 0x20 ADD DUP3 DUP1 SLOAD DUP1 ISZERO PUSH3 0x1F8 JUMPI PUSH1 0x20 MUL DUP3 ADD SWAP2 SWAP1 PUSH1 0x0 MSTORE PUSH1 0x20 PUSH1 0x0 KECCAK256 SWAP1 JUMPDEST DUP2 PUSH1 0x0 SWAP1 SLOAD SWAP1 PUSH2 0x100 EXP SWAP1 DIV PUSH20 0xFFFFFFFFFFFFFFFFFFFFFFFFFFFFFFFFFFFFFFFF AND PUSH20 0xFFFFFFFFFFFFFFFFFFFFFFFFFFFFFFFFFFFFFFFF AND DUP2 MSTORE PUSH1 0x20 ADD SWAP1 PUSH1 0x1 ADD SWAP1 DUP1 DUP4 GT PUSH3 0x1AD JUMPI JUMPDEST POP POP POP POP POP SWAP1 POP SWAP1 JUMP JUMPDEST PUSH2 0x179A DUP1 PUSH3 0x8F1 DUP4 CODECOPY ADD SWAP1 JUMP JUMPDEST PUSH1 0x0 PUSH1 0x40 MLOAD SWAP1 POP SWAP1 JUMP JUMPDEST PUSH1 0x0 DUP1 REVERT JUMPDEST PUSH1 0x0 DUP1 REVERT JUMPDEST PUSH1 0x0 DUP1 REVERT JUMPDEST PUSH1 0x0 DUP1 REVERT JUMPDEST PUSH1 0x0 PUSH1 0x1F NOT PUSH1 0x1F DUP4 ADD AND SWAP1 POP SWAP2 SWAP1 POP JUMP JUMPDEST PUSH32 0x4E487B7100000000000000000000000000000000000000000000000000000000 PUSH1 0x0 MSTORE PUSH1 0x41 PUSH1 0x4 MSTORE PUSH1 0x24 PUSH1 0x0 REVERT JUMPDEST PUSH3 0x279 DUP3 PUSH3 0x22E JUMP JUMPDEST DUP2 ADD DUP2 DUP2 LT PUSH8 0xFFFFFFFFFFFFFFFF DUP3 GT OR ISZERO PUSH3 0x29B JUMPI PUSH3 0x29A PUSH3 0x23F JUMP JUMPDEST JUMPDEST DUP1 PUSH1 0x40 MSTORE POP POP POP JUMP JUMPDEST PUSH1 0x0 PUSH3 0x2B0 PUSH3 0x210 JUMP JUMPDEST SWAP1 POP PUSH3 0x2BE DUP3 DUP3 PUSH3 0x26E JUMP JUMPDEST SWAP2 SWAP1 POP JUMP JUMPDEST PUSH1 0x0 PUSH8 0xFFFFFFFFFFFFFFFF DUP3 GT ISZERO PUSH3 0x2E1 JUMPI PUSH3 0x2E0 PUSH3 0x23F JUMP JUMPDEST JUMPDEST PUSH3 0x2EC DUP3 PUSH3 0x22E JUMP JUMPDEST SWAP1 POP PUSH1 0x20 DUP2 ADD SWAP1 POP SWAP2 SWAP1 POP JUMP JUMPDEST DUP3 DUP2 DUP4 CALLDATACOPY PUSH1 0x0 DUP4 DUP4 ADD MSTORE POP POP POP JUMP JUMPDEST PUSH1 0x0 PUSH3 0x31F PUSH3 0x319 DUP5 PUSH3 0x2C3 JUMP JUMPDEST PUSH3 0x2A4 JUMP JUMPDEST SWAP1 POP DUP3 DUP2 MSTORE PUSH1 0x20 DUP2 ADD DUP5 DUP5 DUP5 ADD GT ISZERO PUSH3 0x33E JUMPI PUSH3 0x33D PUSH3 0x229 JUMP JUMPDEST JUMPDEST PUSH3 0x34B DUP5 DUP3 DUP6 PUSH3 0x2F9 JUMP JUMPDEST POP SWAP4 SWAP3 POP POP POP JUMP JUMPDEST PUSH1 0x0 DUP3 PUSH1 0x1F DUP4 ADD SLT PUSH3 0x36B JUMPI PUSH3 0x36A PUSH3 0x224 JUMP JUMPDEST JUMPDEST DUP2 CALLDATALOAD PUSH3 0x37D DUP5 DUP3 PUSH1 0x20 DUP7 ADD PUSH3 0x308 JUMP JUMPDEST SWAP2 POP POP SWAP3 SWAP2 POP POP JUMP JUMPDEST PUSH1 0x0 PUSH8 0xFFFFFFFFFFFFFFFF DUP3 GT ISZERO PUSH3 0x3A4 JUMPI PUSH3 0x3A3 PUSH3 0x23F JUMP JUMPDEST JUMPDEST PUSH1 0x20 DUP3 MUL SWAP1 POP PUSH1 0x20 DUP2 ADD SWAP1 POP SWAP2 SWAP1 POP JUMP JUMPDEST PUSH1 0x0 DUP1 REVERT JUMPDEST PUSH1 0x0 PUSH3 0x3D1 PUSH3 0x3CB DUP5 PUSH3 0x386 JUMP JUMPDEST PUSH3 0x2A4 JUMP JUMPDEST SWAP1 POP DUP1 DUP4 DUP3 MSTORE PUSH1 0x20 DUP3 ADD SWAP1 POP PUSH1 0x20 DUP5 MUL DUP4 ADD DUP6 DUP2 GT ISZERO PUSH3 0x3F7 JUMPI PUSH3 0x3F6 PUSH3 0x3B5 JUMP JUMPDEST JUMPDEST DUP4 JUMPDEST DUP2 DUP2 LT ISZERO PUSH3 0x445 JUMPI DUP1 CALLDATALOAD PUSH8 0xFFFFFFFFFFFFFFFF DUP2 GT ISZERO PUSH3 0x420 JUMPI PUSH3 0x41F PUSH3 0x224 JUMP JUMPDEST JUMPDEST DUP1 DUP7 ADD PUSH3 0x42F DUP10 DUP3 PUSH3 0x353 JUMP JUMPDEST DUP6 MSTORE PUSH1 0x20 DUP6 ADD SWAP5 POP POP POP PUSH1 0x20 DUP2 ADD SWAP1 POP PUSH3 0x3F9 JUMP JUMPDEST POP POP POP SWAP4 SWAP3 POP POP POP JUMP JUMPDEST PUSH1 0x0 DUP3 PUSH1 0x1F DUP4 ADD SLT PUSH3 0x467 JUMPI PUSH3 0x466 PUSH3 0x224 JUMP JUMPDEST JUMPDEST DUP2 CALLDATALOAD PUSH3 0x479 DUP5 DUP3 PUSH1 0x20 DUP7 ADD PUSH3 0x3BA JUMP JUMPDEST SWAP2 POP POP SWAP3 SWAP2 POP POP JUMP JUMPDEST PUSH1 0x0 DUP1 PUSH1 0x0 DUP1 PUSH1 0x80 DUP6 DUP8 SUB SLT ISZERO PUSH3 0x49F JUMPI PUSH3 0x49E PUSH3 0x21A JUMP JUMPDEST JUMPDEST PUSH1 0x0 DUP6 ADD CALLDATALOAD PUSH8 0xFFFFFFFFFFFFFFFF DUP2 GT ISZERO PUSH3 0x4C0 JUMPI PUSH3 0x4BF PUSH3 0x21F JUMP JUMPDEST JUMPDEST PUSH3 0x4CE DUP8 DUP3 DUP9 ADD PUSH3 0x353 JUMP JUMPDEST SWAP5 POP POP PUSH1 0x20 DUP6 ADD CALLDATALOAD PUSH8 0xFFFFFFFFFFFFFFFF DUP2 GT ISZERO PUSH3 0x4F2 JUMPI PUSH3 0x4F1 PUSH3 0x21F JUMP JUMPDEST JUMPDEST PUSH3 0x500 DUP8 DUP3 DUP9 ADD PUSH3 0x353 JUMP JUMPDEST SWAP4 POP POP PUSH1 0x40 DUP6 ADD CALLDATALOAD PUSH8 0xFFFFFFFFFFFFFFFF DUP2 GT ISZERO PUSH3 0x524 JUMPI PUSH3 0x523 PUSH3 0x21F JUMP JUMPDEST JUMPDEST PUSH3 0x532 DUP8 DUP3 DUP9 ADD PUSH3 0x44F JUMP JUMPDEST SWAP3 POP POP PUSH1 0x60 DUP6 ADD CALLDATALOAD PUSH8 0xFFFFFFFFFFFFFFFF DUP2 GT ISZERO PUSH3 0x556 JUMPI PUSH3 0x555 PUSH3 0x21F JUMP JUMPDEST JUMPDEST PUSH3 0x564 DUP8 DUP3 DUP9 ADD PUSH3 0x353 JUMP JUMPDEST SWAP2 POP POP SWAP3 SWAP6 SWAP2 SWAP5 POP SWAP3 POP JUMP JUMPDEST PUSH1 0x0 DUP2 MLOAD SWAP1 POP SWAP2 SWAP1 POP JUMP JUMPDEST PUSH1 0x0 DUP3 DUP3 MSTORE PUSH1 0x20 DUP3 ADD SWAP1 POP SWAP3 SWAP2 POP POP JUMP JUMPDEST PUSH1 0x0 DUP2 SWAP1 POP PUSH1 0x20 DUP3 ADD SWAP1 POP SWAP2 SWAP1 POP JUMP JUMPDEST PUSH1 0x0 PUSH20 0xFFFFFFFFFFFFFFFFFFFFFFFFFFFFFFFFFFFFFFFF DUP3 AND SWAP1 POP SWAP2 SWAP1 POP JUMP JUMPDEST PUSH1 0x0 DUP2 SWAP1 POP SWAP2 SWAP1 POP JUMP JUMPDEST PUSH1 0x0 PUSH3 0x5E7 PUSH3 0x5E1 PUSH3 0x5DB DUP5 PUSH3 0x59C JUMP JUMPDEST PUSH3 0x5BC JUMP JUMPDEST PUSH3 0x59C JUMP JUMPDEST SWAP1 POP SWAP2 SWAP1 POP JUMP JUMPDEST PUSH1 0x0 PUSH3 0x5FB DUP3 PUSH3 0x5C6 JUMP JUMPDEST SWAP1 POP SWAP2 SWAP1 POP JUMP JUMPDEST PUSH1 0x0 PUSH3 0x60F DUP3 PUSH3 0x5EE JUMP JUMPDEST SWAP1 POP SWAP2 SWAP1 POP JUMP JUMPDEST PUSH3 0x621 DUP2 PUSH3 0x602 JUMP JUMPDEST DUP3 MSTORE POP POP JUMP JUMPDEST PUSH1 0x0 PUSH3 0x635 DUP4 DUP4 PUSH3 0x616 JUMP JUMPDEST PUSH1 0x20 DUP4 ADD SWAP1 POP SWAP3 SWAP2 POP POP JUMP JUMPDEST PUSH1 0x0 PUSH1 0x20 DUP3 ADD SWAP1 POP SWAP2 SWAP1 POP JUMP JUMPDEST PUSH1 0x0 PUSH3 0x65B DUP3 PUSH3 0x570 JUMP JUMPDEST PUSH3 0x667 DUP2 DUP6 PUSH3 0x57B JUMP JUMPDEST SWAP4 POP PUSH3 0x674 DUP4 PUSH3 0x58C JUMP JUMPDEST DUP1 PUSH1 0x0 JUMPDEST DUP4 DUP2 LT ISZERO PUSH3 0x6AB JUMPI DUP2 MLOAD PUSH3 0x68F DUP9 DUP3 PUSH3 0x627 JUMP JUMPDEST SWAP8 POP PUSH3 0x69C DUP4 PUSH3 0x641 JUMP JUMPDEST SWAP3 POP POP PUSH1 0x1 DUP2 ADD SWAP1 POP PUSH3 0x678 JUMP JUMPDEST POP DUP6 SWAP4 POP POP POP POP SWAP3 SWAP2 POP POP JUMP JUMPDEST PUSH1 0x0 PUSH1 0x20 DUP3 ADD SWAP1 POP DUP2 DUP2 SUB PUSH1 0x0 DUP4 ADD MSTORE PUSH3 0x6D4 DUP2 DUP5 PUSH3 0x64E JUMP JUMPDEST SWAP1 POP SWAP3 SWAP2 POP POP JUMP JUMPDEST PUSH1 0x0 DUP2 MLOAD SWAP1 POP SWAP2 SWAP1 POP JUMP JUMPDEST PUSH1 0x0 DUP3 DUP3 MSTORE PUSH1 0x20 DUP3 ADD SWAP1 POP SWAP3 SWAP2 POP POP JUMP JUMPDEST PUSH1 0x0 JUMPDEST DUP4 DUP2 LT ISZERO PUSH3 0x718 JUMPI DUP1 DUP3 ADD MLOAD DUP2 DUP5 ADD MSTORE PUSH1 0x20 DUP2 ADD SWAP1 POP PUSH3 0x6FB JUMP JUMPDEST PUSH1 0x0 DUP5 DUP5 ADD MSTORE POP POP POP POP JUMP JUMPDEST PUSH1 0x0 PUSH3 0x731 DUP3 PUSH3 0x6DC JUMP JUMPDEST PUSH3 0x73D DUP2 DUP6 PUSH3 0x6E7 JUMP JUMPDEST SWAP4 POP PUSH3 0x74F DUP2 DUP6 PUSH1 0x20 DUP7 ADD PUSH3 0x6F8 JUMP JUMPDEST PUSH3 0x75A DUP2 PUSH3 0x22E JUMP JUMPDEST DUP5 ADD SWAP2 POP POP SWAP3 SWAP2 POP POP JUMP JUMPDEST PUSH1 0x0 DUP2 MLOAD SWAP1 POP SWAP2 SWAP1 POP JUMP JUMPDEST PUSH1 0x0 DUP3 DUP3 MSTORE PUSH1 0x20 DUP3 ADD SWAP1 POP SWAP3 SWAP2 POP POP JUMP JUMPDEST PUSH1 0x0 DUP2 SWAP1 POP PUSH1 0x20 DUP3 ADD SWAP1 POP SWAP2 SWAP1 POP JUMP JUMPDEST PUSH1 0x0 DUP3 DUP3 MSTORE PUSH1 0x20 DUP3 ADD SWAP1 POP SWAP3 SWAP2 POP POP JUMP JUMPDEST PUSH1 0x0 PUSH3 0x7AF DUP3 PUSH3 0x6DC JUMP JUMPDEST PUSH3 0x7BB DUP2 DUP6 PUSH3 0x791 JUMP JUMPDEST SWAP4 POP PUSH3 0x7CD DUP2 DUP6 PUSH1 0x20 DUP7 ADD PUSH3 0x6F8 JUMP JUMPDEST PUSH3 0x7D8 DUP2 PUSH3 0x22E JUMP JUMPDEST DUP5 ADD SWAP2 POP POP SWAP3 SWAP2 POP POP JUMP JUMPDEST PUSH1 0x0 PUSH3 0x7F1 DUP4 DUP4 PUSH3 0x7A2 JUMP JUMPDEST SWAP1 POP SWAP3 SWAP2 POP POP JUMP JUMPDEST PUSH1 0x0 PUSH1 0x20 DUP3 ADD SWAP1 POP SWAP2 SWAP1 POP JUMP JUMPDEST PUSH1 0x0 PUSH3 0x813 DUP3 PUSH3 0x765 JUMP JUMPDEST PUSH3 0x81F DUP2 DUP6 PUSH3 0x770 JUMP JUMPDEST SWAP4 POP DUP4 PUSH1 0x20 DUP3 MUL DUP6 ADD PUSH3 0x833 DUP6 PUSH3 0x781 JUMP JUMPDEST DUP1 PUSH1 0x0 JUMPDEST DUP6 DUP2 LT ISZERO PUSH3 0x875 JUMPI DUP5 DUP5 SUB DUP10 MSTORE DUP2 MLOAD PUSH3 0x853 DUP6 DUP3 PUSH3 0x7E3 JUMP JUMPDEST SWAP5 POP PUSH3 0x860 DUP4 PUSH3 0x7F9 JUMP JUMPDEST SWAP3 POP PUSH1 0x20 DUP11 ADD SWAP10 POP POP PUSH1 0x1 DUP2 ADD SWAP1 POP PUSH3 0x837 JUMP JUMPDEST POP DUP3 SWAP8 POP DUP8 SWAP6 POP POP POP POP POP POP SWAP3 SWAP2 POP POP JUMP JUMPDEST PUSH1 0x0 PUSH1 0x80 DUP3 ADD SWAP1 POP DUP2 DUP2 SUB PUSH1 0x0 DUP4 ADD MSTORE PUSH3 0x8A3 DUP2 DUP8 PUSH3 0x724 JUMP JUMPDEST SWAP1 POP DUP2 DUP2 SUB PUSH1 0x20 DUP4 ADD MSTORE PUSH3 0x8B9 DUP2 DUP7 PUSH3 0x724 JUMP JUMPDEST SWAP1 POP DUP2 DUP2 SUB PUSH1 0x40 DUP4 ADD MSTORE PUSH3 0x8CF DUP2 DUP6 PUSH3 0x806 JUMP JUMPDEST SWAP1 POP DUP2 DUP2 SUB PUSH1 0x60 DUP4 ADD MSTORE PUSH3 0x8E5 DUP2 DUP5 PUSH3 0x724 JUMP JUMPDEST SWAP1 POP SWAP6 SWAP5 POP POP POP POP POP JUMP INVALID PUSH1 0x80 PUSH1 0x40 MSTORE PUSH1 0x40 MLOAD PUSH3 0x179A CODESIZE SUB DUP1 PUSH3 0x179A DUP4 CODECOPY DUP2 DUP2 ADD PUSH1 0x40 MSTORE DUP2 ADD SWAP1 PUSH3 0x29 SWAP2 SWAP1 PUSH3 0x485 JUMP JUMPDEST PUSH7 0x2386F26FC10000 CALLVALUE GT PUSH3 0x75 JUMPI PUSH1 0x40 MLOAD PUSH32 0x8C379A000000000000000000000000000000000000000000000000000000000 DUP2 MSTORE PUSH1 0x4 ADD PUSH3 0x6C SWAP1 PUSH3 0x5FA JUMP JUMPDEST PUSH1 0x40 MLOAD DUP1 SWAP2 SUB SWAP1 REVERT JUMPDEST DUP4 PUSH1 0x0 SWAP1 DUP2 PUSH3 0x86 SWAP2 SWAP1 PUSH3 0x867 JUMP JUMPDEST POP PUSH3 0x99 DUP4 DUP3 PUSH3 0xD4 PUSH1 0x20 SHL PUSH1 0x20 SHR JUMP JUMPDEST PUSH1 0x1 DUP2 SWAP1 SSTORE POP DUP2 PUSH1 0x2 SWAP1 DUP1 MLOAD SWAP1 PUSH1 0x20 ADD SWAP1 PUSH3 0xB7 SWAP3 SWAP2 SWAP1 PUSH3 0x109 JUMP JUMPDEST POP DUP1 PUSH1 0x3 SWAP1 DUP2 PUSH3 0xC9 SWAP2 SWAP1 PUSH3 0x867 JUMP JUMPDEST POP POP POP POP POP PUSH3 0x9B8 JUMP JUMPDEST PUSH1 0x0 DUP2 DUP4 PUSH1 0x40 MLOAD PUSH1 0x20 ADD PUSH3 0xEB SWAP3 SWAP2 SWAP1 PUSH3 0x990 JUMP JUMPDEST PUSH1 0x40 MLOAD PUSH1 0x20 DUP2 DUP4 SUB SUB DUP2 MSTORE SWAP1 PUSH1 0x40 MSTORE DUP1 MLOAD SWAP1 PUSH1 0x20 ADD KECCAK256 SWAP1 POP SWAP3 SWAP2 POP POP JUMP JUMPDEST DUP3 DUP1 SLOAD DUP3 DUP3 SSTORE SWAP1 PUSH1 0x0 MSTORE PUSH1 0x20 PUSH1 0x0 KECCAK256 SWAP1 DUP2 ADD SWAP3 DUP3 ISZERO PUSH3 0x156 JUMPI SWAP2 PUSH1 0x20 MUL DUP3 ADD JUMPDEST DUP3 DUP2 GT ISZERO PUSH3 0x155 JUMPI DUP3 MLOAD DUP3 SWAP1 DUP2 PUSH3 0x144 SWAP2 SWAP1 PUSH3 0x867 JUMP JUMPDEST POP SWAP2 PUSH1 0x20 ADD SWAP2 SWAP1 PUSH1 0x1 ADD SWAP1 PUSH3 0x12A JUMP JUMPDEST JUMPDEST POP SWAP1 POP PUSH3 0x165 SWAP2 SWAP1 PUSH3 0x169 JUMP JUMPDEST POP SWAP1 JUMP JUMPDEST JUMPDEST DUP1 DUP3 GT ISZERO PUSH3 0x18D JUMPI PUSH1 0x0 DUP2 DUP2 PUSH3 0x183 SWAP2 SWAP1 PUSH3 0x191 JUMP JUMPDEST POP PUSH1 0x1 ADD PUSH3 0x16A JUMP JUMPDEST POP SWAP1 JUMP JUMPDEST POP DUP1 SLOAD PUSH3 0x19F SWAP1 PUSH3 0x656 JUMP JUMPDEST PUSH1 0x0 DUP3 SSTORE DUP1 PUSH1 0x1F LT PUSH3 0x1B3 JUMPI POP PUSH3 0x1D4 JUMP JUMPDEST PUSH1 0x1F ADD PUSH1 0x20 SWAP1 DIV SWAP1 PUSH1 0x0 MSTORE PUSH1 0x20 PUSH1 0x0 KECCAK256 SWAP1 DUP2 ADD SWAP1 PUSH3 0x1D3 SWAP2 SWAP1 PUSH3 0x1D7 JUMP JUMPDEST JUMPDEST POP JUMP JUMPDEST JUMPDEST DUP1 DUP3 GT ISZERO PUSH3 0x1F2 JUMPI PUSH1 0x0 DUP2 PUSH1 0x0 SWAP1 SSTORE POP PUSH1 0x1 ADD PUSH3 0x1D8 JUMP JUMPDEST POP SWAP1 JUMP JUMPDEST PUSH1 0x0 PUSH1 0x40 MLOAD SWAP1 POP SWAP1 JUMP JUMPDEST PUSH1 0x0 DUP1 REVERT JUMPDEST PUSH1 0x0 DUP1 REVERT JUMPDEST PUSH1 0x0 DUP1 REVERT JUMPDEST PUSH1 0x0 DUP1 REVERT JUMPDEST PUSH1 0x0 PUSH1 0x1F NOT PUSH1 0x1F DUP4 ADD AND SWAP1 POP SWAP2 SWAP1 POP JUMP JUMPDEST PUSH32 0x4E487B7100000000000000000000000000000000000000000000000000000000 PUSH1 0x0 MSTORE PUSH1 0x41 PUSH1 0x4 MSTORE PUSH1 0x24 PUSH1 0x0 REVERT JUMPDEST PUSH3 0x25F DUP3 PUSH3 0x214 JUMP JUMPDEST DUP2 ADD DUP2 DUP2 LT PUSH8 0xFFFFFFFFFFFFFFFF DUP3 GT OR ISZERO PUSH3 0x281 JUMPI PUSH3 0x280 PUSH3 0x225 JUMP JUMPDEST JUMPDEST DUP1 PUSH1 0x40 MSTORE POP POP POP JUMP JUMPDEST PUSH1 0x0 PUSH3 0x296 PUSH3 0x1F6 JUMP JUMPDEST SWAP1 POP PUSH3 0x2A4 DUP3 DUP3 PUSH3 0x254 JUMP JUMPDEST SWAP2 SWAP1 POP JUMP JUMPDEST PUSH1 0x0 PUSH8 0xFFFFFFFFFFFFFFFF DUP3 GT ISZERO PUSH3 0x2C7 JUMPI PUSH3 0x2C6 PUSH3 0x225 JUMP JUMPDEST JUMPDEST PUSH3 0x2D2 DUP3 PUSH3 0x214 JUMP JUMPDEST SWAP1 POP PUSH1 0x20 DUP2 ADD SWAP1 POP SWAP2 SWAP1 POP JUMP JUMPDEST PUSH1 0x0 JUMPDEST DUP4 DUP2 LT ISZERO PUSH3 0x2FF JUMPI DUP1 DUP3 ADD MLOAD DUP2 DUP5 ADD MSTORE PUSH1 0x20 DUP2 ADD SWAP1 POP PUSH3 0x2E2 JUMP JUMPDEST PUSH1 0x0 DUP5 DUP5 ADD MSTORE POP POP POP POP JUMP JUMPDEST PUSH1 0x0 PUSH3 0x322 PUSH3 0x31C DUP5 PUSH3 0x2A9 JUMP JUMPDEST PUSH3 0x28A JUMP JUMPDEST SWAP1 POP DUP3 DUP2 MSTORE PUSH1 0x20 DUP2 ADD DUP5 DUP5 DUP5 ADD GT ISZERO PUSH3 0x341 JUMPI PUSH3 0x340 PUSH3 0x20F JUMP JUMPDEST JUMPDEST PUSH3 0x34E DUP5 DUP3 DUP6 PUSH3 0x2DF JUMP JUMPDEST POP SWAP4 SWAP3 POP POP POP JUMP JUMPDEST PUSH1 0x0 DUP3 PUSH1 0x1F DUP4 ADD SLT PUSH3 0x36E JUMPI PUSH3 0x36D PUSH3 0x20A JUMP JUMPDEST JUMPDEST DUP2 MLOAD PUSH3 0x380 DUP5 DUP3 PUSH1 0x20 DUP7 ADD PUSH3 0x30B JUMP JUMPDEST SWAP2 POP POP SWAP3 SWAP2 POP POP JUMP JUMPDEST PUSH1 0x0 PUSH8 0xFFFFFFFFFFFFFFFF DUP3 GT ISZERO PUSH3 0x3A7 JUMPI PUSH3 0x3A6 PUSH3 0x225 JUMP JUMPDEST JUMPDEST PUSH1 0x20 DUP3 MUL SWAP1 POP PUSH1 0x20 DUP2 ADD SWAP1 POP SWAP2 SWAP1 POP JUMP JUMPDEST PUSH1 0x0 DUP1 REVERT JUMPDEST PUSH1 0x0 PUSH3 0x3D4 PUSH3 0x3CE DUP5 PUSH3 0x389 JUMP JUMPDEST PUSH3 0x28A JUMP JUMPDEST SWAP1 POP DUP1 DUP4 DUP3 MSTORE PUSH1 0x20 DUP3 ADD SWAP1 POP PUSH1 0x20 DUP5 MUL DUP4 ADD DUP6 DUP2 GT ISZERO PUSH3 0x3FA JUMPI PUSH3 0x3F9 PUSH3 0x3B8 JUMP JUMPDEST JUMPDEST DUP4 JUMPDEST DUP2 DUP2 LT ISZERO PUSH3 0x448 JUMPI DUP1 MLOAD PUSH8 0xFFFFFFFFFFFFFFFF DUP2 GT ISZERO PUSH3 0x423 JUMPI PUSH3 0x422 PUSH3 0x20A JUMP JUMPDEST JUMPDEST DUP1 DUP7 ADD PUSH3 0x432 DUP10 DUP3 PUSH3 0x356 JUMP JUMPDEST DUP6 MSTORE PUSH1 0x20 DUP6 ADD SWAP5 POP POP POP PUSH1 0x20 DUP2 ADD SWAP1 POP PUSH3 0x3FC JUMP JUMPDEST POP POP POP SWAP4 SWAP3 POP POP POP JUMP JUMPDEST PUSH1 0x0 DUP3 PUSH1 0x1F DUP4 ADD SLT PUSH3 0x46A JUMPI PUSH3 0x469 PUSH3 0x20A JUMP JUMPDEST JUMPDEST DUP2 MLOAD PUSH3 0x47C DUP5 DUP3 PUSH1 0x20 DUP7 ADD PUSH3 0x3BD JUMP JUMPDEST SWAP2 POP POP SWAP3 SWAP2 POP POP JUMP JUMPDEST PUSH1 0x0 DUP1 PUSH1 0x0 DUP1 PUSH1 0x80 DUP6 DUP8 SUB SLT ISZERO PUSH3 0x4A2 JUMPI PUSH3 0x4A1 PUSH3 0x200 JUMP JUMPDEST JUMPDEST PUSH1 0x0 DUP6 ADD MLOAD PUSH8 0xFFFFFFFFFFFFFFFF DUP2 GT ISZERO PUSH3 0x4C3 JUMPI PUSH3 0x4C2 PUSH3 0x205 JUMP JUMPDEST JUMPDEST PUSH3 0x4D1 DUP8 DUP3 DUP9 ADD PUSH3 0x356 JUMP JUMPDEST SWAP5 POP POP PUSH1 0x20 DUP6 ADD MLOAD PUSH8 0xFFFFFFFFFFFFFFFF DUP2 GT ISZERO PUSH3 0x4F5 JUMPI PUSH3 0x4F4 PUSH3 0x205 JUMP JUMPDEST JUMPDEST PUSH3 0x503 DUP8 DUP3 DUP9 ADD PUSH3 0x356 JUMP JUMPDEST SWAP4 POP POP PUSH1 0x40 DUP6 ADD MLOAD PUSH8 0xFFFFFFFFFFFFFFFF DUP2 GT ISZERO PUSH3 0x527 JUMPI PUSH3 0x526 PUSH3 0x205 JUMP JUMPDEST JUMPDEST PUSH3 0x535 DUP8 DUP3 DUP9 ADD PUSH3 0x452 JUMP JUMPDEST SWAP3 POP POP PUSH1 0x60 DUP6 ADD MLOAD PUSH8 0xFFFFFFFFFFFFFFFF DUP2 GT ISZERO PUSH3 0x559 JUMPI PUSH3 0x558 PUSH3 0x205 JUMP JUMPDEST JUMPDEST PUSH3 0x567 DUP8 DUP3 DUP9 ADD PUSH3 0x356 JUMP JUMPDEST SWAP2 POP POP SWAP3 SWAP6 SWAP2 SWAP5 POP SWAP3 POP JUMP JUMPDEST PUSH1 0x0 DUP3 DUP3 MSTORE PUSH1 0x20 DUP3 ADD SWAP1 POP SWAP3 SWAP2 POP POP JUMP JUMPDEST PUSH32 0x546865204574682073656E74206D757374206265206174206C6561737420302E PUSH1 0x0 DUP3 ADD MSTORE PUSH32 0x3031000000000000000000000000000000000000000000000000000000000000 PUSH1 0x20 DUP3 ADD MSTORE POP JUMP JUMPDEST PUSH1 0x0 PUSH3 0x5E2 PUSH1 0x22 DUP4 PUSH3 0x573 JUMP JUMPDEST SWAP2 POP PUSH3 0x5EF DUP3 PUSH3 0x584 JUMP JUMPDEST PUSH1 0x40 DUP3 ADD SWAP1 POP SWAP2 SWAP1 POP JUMP JUMPDEST PUSH1 0x0 PUSH1 0x20 DUP3 ADD SWAP1 POP DUP2 DUP2 SUB PUSH1 0x0 DUP4 ADD MSTORE PUSH3 0x615 DUP2 PUSH3 0x5D3 JUMP JUMPDEST SWAP1 POP SWAP2 SWAP1 POP JUMP JUMPDEST PUSH1 0x0 DUP2 MLOAD SWAP1 POP SWAP2 SWAP1 POP JUMP JUMPDEST PUSH32 0x4E487B7100000000000000000000000000000000000000000000000000000000 PUSH1 0x0 MSTORE PUSH1 0x22 PUSH1 0x4 MSTORE PUSH1 0x24 PUSH1 0x0 REVERT JUMPDEST PUSH1 0x0 PUSH1 0x2 DUP3 DIV SWAP1 POP PUSH1 0x1 DUP3 AND DUP1 PUSH3 0x66F JUMPI PUSH1 0x7F DUP3 AND SWAP2 POP JUMPDEST PUSH1 0x20 DUP3 LT DUP2 SUB PUSH3 0x685 JUMPI PUSH3 0x684 PUSH3 0x627 JUMP JUMPDEST JUMPDEST POP SWAP2 SWAP1 POP JUMP JUMPDEST PUSH1 0x0 DUP2 SWAP1 POP DUP2 PUSH1 0x0 MSTORE PUSH1 0x20 PUSH1 0x0 KECCAK256 SWAP1 POP SWAP2 SWAP1 POP JUMP JUMPDEST PUSH1 0x0 PUSH1 0x20 PUSH1 0x1F DUP4 ADD DIV SWAP1 POP SWAP2 SWAP1 POP JUMP JUMPDEST PUSH1 0x0 DUP3 DUP3 SHL SWAP1 POP SWAP3 SWAP2 POP POP JUMP JUMPDEST PUSH1 0x0 PUSH1 0x8 DUP4 MUL PUSH3 0x6EF PUSH32 0xFFFFFFFFFFFFFFFFFFFFFFFFFFFFFFFFFFFFFFFFFFFFFFFFFFFFFFFFFFFFFFFF DUP3 PUSH3 0x6B0 JUMP JUMPDEST PUSH3 0x6FB DUP7 DUP4 PUSH3 0x6B0 JUMP JUMPDEST SWAP6 POP DUP1 NOT DUP5 AND SWAP4 POP DUP1 DUP7 AND DUP5 OR SWAP3 POP POP POP SWAP4 SWAP3 POP POP POP JUMP JUMPDEST PUSH1 0x0 DUP2 SWAP1 POP SWAP2 SWAP1 POP JUMP JUMPDEST PUSH1 0x0 DUP2 SWAP1 POP SWAP2 SWAP1 POP JUMP JUMPDEST PUSH1 0x0 PUSH3 0x748 PUSH3 0x742 PUSH3 0x73C DUP5 PUSH3 0x713 JUMP JUMPDEST PUSH3 0x71D JUMP JUMPDEST PUSH3 0x713 JUMP JUMPDEST SWAP1 POP SWAP2 SWAP1 POP JUMP JUMPDEST PUSH1 0x0 DUP2 SWAP1 POP SWAP2 SWAP1 POP JUMP JUMPDEST PUSH3 0x764 DUP4 PUSH3 0x727 JUMP JUMPDEST PUSH3 0x77C PUSH3 0x773 DUP3 PUSH3 0x74F JUMP JUMPDEST DUP5 DUP5 SLOAD PUSH3 0x6BD JUMP JUMPDEST DUP3 SSTORE POP POP POP POP JUMP JUMPDEST PUSH1 0x0 SWAP1 JUMP JUMPDEST PUSH3 0x793 PUSH3 0x784 JUMP JUMPDEST PUSH3 0x7A0 DUP2 DUP5 DUP5 PUSH3 0x759 JUMP JUMPDEST POP POP POP JUMP JUMPDEST JUMPDEST DUP2 DUP2 LT ISZERO PUSH3 0x7C8 JUMPI PUSH3 0x7BC PUSH1 0x0 DUP3 PUSH3 0x789 JUMP JUMPDEST PUSH1 0x1 DUP2 ADD SWAP1 POP PUSH3 0x7A6 JUMP JUMPDEST POP POP JUMP JUMPDEST PUSH1 0x1F DUP3 GT ISZERO PUSH3 0x817 JUMPI PUSH3 0x7E1 DUP2 PUSH3 0x68B JUMP JUMPDEST PUSH3 0x7EC DUP5 PUSH3 0x6A0 JUMP JUMPDEST DUP2 ADD PUSH1 0x20 DUP6 LT ISZERO PUSH3 0x7FC JUMPI DUP2 SWAP1 POP JUMPDEST PUSH3 0x814 PUSH3 0x80B DUP6 PUSH3 0x6A0 JUMP JUMPDEST DUP4 ADD DUP3 PUSH3 0x7A5 JUMP JUMPDEST POP POP JUMPDEST POP POP POP JUMP JUMPDEST PUSH1 0x0 DUP3 DUP3 SHR SWAP1 POP SWAP3 SWAP2 POP POP JUMP JUMPDEST PUSH1 0x0 PUSH3 0x83C PUSH1 0x0 NOT DUP5 PUSH1 0x8 MUL PUSH3 0x81C JUMP JUMPDEST NOT DUP1 DUP4 AND SWAP2 POP POP SWAP3 SWAP2 POP POP JUMP JUMPDEST PUSH1 0x0 PUSH3 0x857 DUP4 DUP4 PUSH3 0x829 JUMP JUMPDEST SWAP2 POP DUP3 PUSH1 0x2 MUL DUP3 OR SWAP1 POP SWAP3 SWAP2 POP POP JUMP JUMPDEST PUSH3 0x872 DUP3 PUSH3 0x61C JUMP JUMPDEST PUSH8 0xFFFFFFFFFFFFFFFF DUP2 GT ISZERO PUSH3 0x88E JUMPI PUSH3 0x88D PUSH3 0x225 JUMP JUMPDEST JUMPDEST PUSH3 0x89A DUP3 SLOAD PUSH3 0x656 JUMP JUMPDEST PUSH3 0x8A7 DUP3 DUP3 DUP6 PUSH3 0x7CC JUMP JUMPDEST PUSH1 0x0 PUSH1 0x20 SWAP1 POP PUSH1 0x1F DUP4 GT PUSH1 0x1 DUP2 EQ PUSH3 0x8DF JUMPI PUSH1 0x0 DUP5 ISZERO PUSH3 0x8CA JUMPI DUP3 DUP8 ADD MLOAD SWAP1 POP JUMPDEST PUSH3 0x8D6 DUP6 DUP3 PUSH3 0x849 JUMP JUMPDEST DUP7 SSTORE POP PUSH3 0x946 JUMP JUMPDEST PUSH1 0x1F NOT DUP5 AND PUSH3 0x8EF DUP7 PUSH3 0x68B JUMP JUMPDEST PUSH1 0x0 JUMPDEST DUP3 DUP2 LT ISZERO PUSH3 0x919 JUMPI DUP5 DUP10 ADD MLOAD DUP3 SSTORE PUSH1 0x1 DUP3 ADD SWAP2 POP PUSH1 0x20 DUP6 ADD SWAP5 POP PUSH1 0x20 DUP2 ADD SWAP1 POP PUSH3 0x8F2 JUMP JUMPDEST DUP7 DUP4 LT ISZERO PUSH3 0x939 JUMPI DUP5 DUP10 ADD MLOAD PUSH3 0x935 PUSH1 0x1F DUP10 AND DUP3 PUSH3 0x829 JUMP JUMPDEST DUP4 SSTORE POP JUMPDEST PUSH1 0x1 PUSH1 0x2 DUP9 MUL ADD DUP9 SSTORE POP POP POP JUMPDEST POP POP POP POP POP POP JUMP JUMPDEST PUSH1 0x0 DUP2 SWAP1 POP SWAP3 SWAP2 POP POP JUMP JUMPDEST PUSH1 0x0 PUSH3 0x966 DUP3 PUSH3 0x61C JUMP JUMPDEST PUSH3 0x972 DUP2 DUP6 PUSH3 0x94E JUMP JUMPDEST SWAP4 POP PUSH3 0x984 DUP2 DUP6 PUSH1 0x20 DUP7 ADD PUSH3 0x2DF JUMP JUMPDEST DUP1 DUP5 ADD SWAP2 POP POP SWAP3 SWAP2 POP POP JUMP JUMPDEST PUSH1 0x0 PUSH3 0x99E DUP3 DUP6 PUSH3 0x959 JUMP JUMPDEST SWAP2 POP PUSH3 0x9AC DUP3 DUP5 PUSH3 0x959 JUMP JUMPDEST SWAP2 POP DUP2 SWAP1 POP SWAP4 SWAP3 POP POP POP JUMP JUMPDEST PUSH2 0xDD2 DUP1 PUSH3 0x9C8 PUSH1 0x0 CODECOPY PUSH1 0x0 RETURN INVALID PUSH1 0x80 PUSH1 0x40 MSTORE PUSH1 0x4 CALLDATASIZE LT PUSH2 0x59 JUMPI PUSH1 0x0 CALLDATALOAD PUSH1 0xE0 SHR DUP1 PUSH4 0x3FAD9AE0 EQ PUSH2 0xDB JUMPI DUP1 PUSH4 0x4EEE59B3 EQ PUSH2 0x106 JUMPI DUP1 PUSH4 0x70740AC9 EQ PUSH2 0x122 JUMPI DUP1 PUSH4 0x8577DB43 EQ PUSH2 0x12C JUMPI DUP1 PUSH4 0xC793FCF9 EQ PUSH2 0x157 JUMPI DUP1 PUSH4 0xDFBF53AE EQ PUSH2 0x182 JUMPI PUSH2 0xD6 JUMP JUMPDEST CALLDATASIZE PUSH2 0xD6 JUMPI PUSH7 0x2386F26FC10000 CALLVALUE GT PUSH2 0xA7 JUMPI PUSH1 0x40 MLOAD PUSH32 0x8C379A000000000000000000000000000000000000000000000000000000000 DUP2 MSTORE PUSH1 0x4 ADD PUSH2 0x9E SWAP1 PUSH2 0x7C2 JUMP JUMPDEST PUSH1 0x40 MLOAD DUP1 SWAP2 SUB SWAP1 REVERT JUMPDEST CALLVALUE PUSH32 0x44863BC9B335CAF97CA3A3AB6FB67776965A88292ED53B0679F8EAE4A67B630C PUSH1 0x40 MLOAD PUSH1 0x40 MLOAD DUP1 SWAP2 SUB SWAP1 LOG2 STOP JUMPDEST PUSH1 0x0 DUP1 REVERT JUMPDEST CALLVALUE DUP1 ISZERO PUSH2 0xE7 JUMPI PUSH1 0x0 DUP1 REVERT JUMPDEST POP PUSH2 0xF0 PUSH2 0x1AD JUMP JUMPDEST PUSH1 0x40 MLOAD PUSH2 0xFD SWAP2 SWAP1 PUSH2 0x861 JUMP JUMPDEST PUSH1 0x40 MLOAD DUP1 SWAP2 SUB SWAP1 RETURN JUMPDEST PUSH2 0x120 PUSH1 0x4 DUP1 CALLDATASIZE SUB DUP2 ADD SWAP1 PUSH2 0x11B SWAP2 SWAP1 PUSH2 0x8F2 JUMP JUMPDEST PUSH2 0x23B JUMP JUMPDEST STOP JUMPDEST PUSH2 0x12A PUSH2 0x485 JUMP JUMPDEST STOP JUMPDEST CALLVALUE DUP1 ISZERO PUSH2 0x138 JUMPI PUSH1 0x0 DUP1 REVERT JUMPDEST POP PUSH2 0x141 PUSH2 0x605 JUMP JUMPDEST PUSH1 0x40 MLOAD PUSH2 0x14E SWAP2 SWAP1 PUSH2 0x958 JUMP JUMPDEST PUSH1 0x40 MLOAD DUP1 SWAP2 SUB SWAP1 RETURN JUMPDEST CALLVALUE DUP1 ISZERO PUSH2 0x163 JUMPI PUSH1 0x0 DUP1 REVERT JUMPDEST POP PUSH2 0x16C PUSH2 0x60D JUMP JUMPDEST PUSH1 0x40 MLOAD PUSH2 0x179 SWAP2 SWAP1 PUSH2 0xA7F JUMP JUMPDEST PUSH1 0x40 MLOAD DUP1 SWAP2 SUB SWAP1 RETURN JUMPDEST CALLVALUE DUP1 ISZERO PUSH2 0x18E JUMPI PUSH1 0x0 DUP1 REVERT JUMPDEST POP PUSH2 0x197 PUSH2 0x6E6 JUMP JUMPDEST PUSH1 0x40 MLOAD PUSH2 0x1A4 SWAP2 SWAP1 PUSH2 0xAE2 JUMP JUMPDEST PUSH1 0x40 MLOAD DUP1 SWAP2 SUB SWAP1 RETURN JUMPDEST PUSH1 0x0 DUP1 SLOAD PUSH2 0x1BA SWAP1 PUSH2 0xB2C JUMP JUMPDEST DUP1 PUSH1 0x1F ADD PUSH1 0x20 DUP1 SWAP2 DIV MUL PUSH1 0x20 ADD PUSH1 0x40 MLOAD SWAP1 DUP2 ADD PUSH1 0x40 MSTORE DUP1 SWAP3 SWAP2 SWAP1 DUP2 DUP2 MSTORE PUSH1 0x20 ADD DUP3 DUP1 SLOAD PUSH2 0x1E6 SWAP1 PUSH2 0xB2C JUMP JUMPDEST DUP1 ISZERO PUSH2 0x233 JUMPI DUP1 PUSH1 0x1F LT PUSH2 0x208 JUMPI PUSH2 0x100 DUP1 DUP4 SLOAD DIV MUL DUP4 MSTORE SWAP2 PUSH1 0x20 ADD SWAP2 PUSH2 0x233 JUMP JUMPDEST DUP3 ADD SWAP2 SWAP1 PUSH1 0x0 MSTORE PUSH1 0x20 PUSH1 0x0 KECCAK256 SWAP1 JUMPDEST DUP2 SLOAD DUP2 MSTORE SWAP1 PUSH1 0x1 ADD SWAP1 PUSH1 0x20 ADD DUP1 DUP4 GT PUSH2 0x216 JUMPI DUP3 SWAP1 SUB PUSH1 0x1F AND DUP3 ADD SWAP2 JUMPDEST POP POP POP POP POP DUP2 JUMP JUMPDEST PUSH1 0x0 PUSH20 0xFFFFFFFFFFFFFFFFFFFFFFFFFFFFFFFFFFFFFFFF AND PUSH1 0x4 PUSH1 0x0 SWAP1 SLOAD SWAP1 PUSH2 0x100 EXP SWAP1 DIV PUSH20 0xFFFFFFFFFFFFFFFFFFFFFFFFFFFFFFFFFFFFFFFF AND PUSH20 0xFFFFFFFFFFFFFFFFFFFFFFFFFFFFFFFFFFFFFFFF AND EQ PUSH2 0x2CC JUMPI PUSH1 0x40 MLOAD PUSH32 0x8C379A000000000000000000000000000000000000000000000000000000000 DUP2 MSTORE PUSH1 0x4 ADD PUSH2 0x2C3 SWAP1 PUSH2 0xBCF JUMP JUMPDEST PUSH1 0x40 MLOAD DUP1 SWAP2 SUB SWAP1 REVERT JUMPDEST PUSH1 0x1 SLOAD PUSH2 0x3A7 DUP4 DUP4 DUP1 DUP1 PUSH1 0x1F ADD PUSH1 0x20 DUP1 SWAP2 DIV MUL PUSH1 0x20 ADD PUSH1 0x40 MLOAD SWAP1 DUP2 ADD PUSH1 0x40 MSTORE DUP1 SWAP4 SWAP3 SWAP2 SWAP1 DUP2 DUP2 MSTORE PUSH1 0x20 ADD DUP4 DUP4 DUP1 DUP3 DUP5 CALLDATACOPY PUSH1 0x0 DUP2 DUP5 ADD MSTORE PUSH1 0x1F NOT PUSH1 0x1F DUP3 ADD AND SWAP1 POP DUP1 DUP4 ADD SWAP3 POP POP POP POP POP POP POP PUSH1 0x3 DUP1 SLOAD PUSH2 0x324 SWAP1 PUSH2 0xB2C JUMP JUMPDEST DUP1 PUSH1 0x1F ADD PUSH1 0x20 DUP1 SWAP2 DIV MUL PUSH1 0x20 ADD PUSH1 0x40 MLOAD SWAP1 DUP2 ADD PUSH1 0x40 MSTORE DUP1 SWAP3 SWAP2 SWAP1 DUP2 DUP2 MSTORE PUSH1 0x20 ADD DUP3 DUP1 SLOAD PUSH2 0x350 SWAP1 PUSH2 0xB2C JUMP JUMPDEST DUP1 ISZERO PUSH2 0x39D JUMPI DUP1 PUSH1 0x1F LT PUSH2 0x372 JUMPI PUSH2 0x100 DUP1 DUP4 SLOAD DIV MUL DUP4 MSTORE SWAP2 PUSH1 0x20 ADD SWAP2 PUSH2 0x39D JUMP JUMPDEST DUP3 ADD SWAP2 SWAP1 PUSH1 0x0 MSTORE PUSH1 0x20 PUSH1 0x0 KECCAK256 SWAP1 JUMPDEST DUP2 SLOAD DUP2 MSTORE SWAP1 PUSH1 0x1 ADD SWAP1 PUSH1 0x20 ADD DUP1 DUP4 GT PUSH2 0x380 JUMPI DUP3 SWAP1 SUB PUSH1 0x1F AND DUP3 ADD SWAP2 JUMPDEST POP POP POP POP POP PUSH2 0x70C JUMP JUMPDEST SUB PUSH2 0x43D JUMPI PUSH2 0x3B4 PUSH2 0x605 JUMP JUMPDEST CALLER PUSH20 0xFFFFFFFFFFFFFFFFFFFFFFFFFFFFFFFFFFFFFFFF AND PUSH32 0x1B52B6BD5E988E46AA2A39E8D112F1AF5047D215D44356910E9F9C79671031A4 PUSH1 0x40 MLOAD PUSH1 0x40 MLOAD DUP1 SWAP2 SUB SWAP1 LOG3 CALLER PUSH1 0x4 PUSH1 0x0 PUSH2 0x100 EXP DUP2 SLOAD DUP2 PUSH20 0xFFFFFFFFFFFFFFFFFFFFFFFFFFFFFFFFFFFFFFFF MUL NOT AND SWAP1 DUP4 PUSH20 0xFFFFFFFFFFFFFFFFFFFFFFFFFFFFFFFFFFFFFFFF AND MUL OR SWAP1 SSTORE POP PUSH2 0x481 JUMP JUMPDEST CALLER PUSH20 0xFFFFFFFFFFFFFFFFFFFFFFFFFFFFFFFFFFFFFFFF AND PUSH32 0xD5460701E04F1A04B5A6FC14ECE043C4FDE3A641922AED43B4AA6AA97066E76A PUSH1 0x40 MLOAD PUSH1 0x40 MLOAD DUP1 SWAP2 SUB SWAP1 LOG2 JUMPDEST POP POP JUMP JUMPDEST PUSH1 0x4 PUSH1 0x0 SWAP1 SLOAD SWAP1 PUSH2 0x100 EXP SWAP1 DIV PUSH20 0xFFFFFFFFFFFFFFFFFFFFFFFFFFFFFFFFFFFFFFFF AND PUSH20 0xFFFFFFFFFFFFFFFFFFFFFFFFFFFFFFFFFFFFFFFF AND CALLER PUSH20 0xFFFFFFFFFFFFFFFFFFFFFFFFFFFFFFFFFFFFFFFF AND EQ PUSH2 0x515 JUMPI PUSH1 0x40 MLOAD PUSH32 0x8C379A000000000000000000000000000000000000000000000000000000000 DUP2 MSTORE PUSH1 0x4 ADD PUSH2 0x50C SWAP1 PUSH2 0xC3B JUMP JUMPDEST PUSH1 0x40 MLOAD DUP1 SWAP2 SUB SWAP1 REVERT JUMPDEST PUSH1 0x0 PUSH2 0x51F PUSH2 0x605 JUMP JUMPDEST GT PUSH2 0x55F JUMPI PUSH1 0x40 MLOAD PUSH32 0x8C379A000000000000000000000000000000000000000000000000000000000 DUP2 MSTORE PUSH1 0x4 ADD PUSH2 0x556 SWAP1 PUSH2 0xCA7 JUMP JUMPDEST PUSH1 0x40 MLOAD DUP1 SWAP2 SUB SWAP1 REVERT JUMPDEST PUSH1 0x0 PUSH1 0x4 PUSH1 0x0 SWAP1 SLOAD SWAP1 PUSH2 0x100 EXP SWAP1 DIV PUSH20 0xFFFFFFFFFFFFFFFFFFFFFFFFFFFFFFFFFFFFFFFF AND PUSH20 0xFFFFFFFFFFFFFFFFFFFFFFFFFFFFFFFFFFFFFFFF AND PUSH2 0x5A2 PUSH2 0x605 JUMP JUMPDEST PUSH1 0x40 MLOAD PUSH2 0x5AE SWAP1 PUSH2 0xCF8 JUMP JUMPDEST PUSH1 0x0 PUSH1 0x40 MLOAD DUP1 DUP4 SUB DUP2 DUP6 DUP8 GAS CALL SWAP3 POP POP POP RETURNDATASIZE DUP1 PUSH1 0x0 DUP2 EQ PUSH2 0x5EB JUMPI PUSH1 0x40 MLOAD SWAP2 POP PUSH1 0x1F NOT PUSH1 0x3F RETURNDATASIZE ADD AND DUP3 ADD PUSH1 0x40 MSTORE RETURNDATASIZE DUP3 MSTORE RETURNDATASIZE PUSH1 0x0 PUSH1 0x20 DUP5 ADD RETURNDATACOPY PUSH2 0x5F0 JUMP JUMPDEST PUSH1 0x60 SWAP2 POP JUMPDEST POP POP SWAP1 POP DUP1 PUSH2 0x602 JUMPI PUSH2 0x601 PUSH2 0xD0D JUMP JUMPDEST JUMPDEST POP JUMP JUMPDEST PUSH1 0x0 SELFBALANCE SWAP1 POP SWAP1 JUMP JUMPDEST PUSH1 0x60 PUSH1 0x2 DUP1 SLOAD DUP1 PUSH1 0x20 MUL PUSH1 0x20 ADD PUSH1 0x40 MLOAD SWAP1 DUP2 ADD PUSH1 0x40 MSTORE DUP1 SWAP3 SWAP2 SWAP1 DUP2 DUP2 MSTORE PUSH1 0x20 ADD PUSH1 0x0 SWAP1 JUMPDEST DUP3 DUP3 LT ISZERO PUSH2 0x6DD JUMPI DUP4 DUP3 SWAP1 PUSH1 0x0 MSTORE PUSH1 0x20 PUSH1 0x0 KECCAK256 ADD DUP1 SLOAD PUSH2 0x650 SWAP1 PUSH2 0xB2C JUMP JUMPDEST DUP1 PUSH1 0x1F ADD PUSH1 0x20 DUP1 SWAP2 DIV MUL PUSH1 0x20 ADD PUSH1 0x40 MLOAD SWAP1 DUP2 ADD PUSH1 0x40 MSTORE DUP1 SWAP3 SWAP2 SWAP1 DUP2 DUP2 MSTORE PUSH1 0x20 ADD DUP3 DUP1 SLOAD PUSH2 0x67C SWAP1 PUSH2 0xB2C JUMP JUMPDEST DUP1 ISZERO PUSH2 0x6C9 JUMPI DUP1 PUSH1 0x1F LT PUSH2 0x69E JUMPI PUSH2 0x100 DUP1 DUP4 SLOAD DIV MUL DUP4 MSTORE SWAP2 PUSH1 0x20 ADD SWAP2 PUSH2 0x6C9 JUMP JUMPDEST DUP3 ADD SWAP2 SWAP1 PUSH1 0x0 MSTORE PUSH1 0x20 PUSH1 0x0 KECCAK256 SWAP1 JUMPDEST DUP2 SLOAD DUP2 MSTORE SWAP1 PUSH1 0x1 ADD SWAP1 PUSH1 0x20 ADD DUP1 DUP4 GT PUSH2 0x6AC JUMPI DUP3 SWAP1 SUB PUSH1 0x1F AND DUP3 ADD SWAP2 JUMPDEST POP POP POP POP POP DUP2 MSTORE PUSH1 0x20 ADD SWAP1 PUSH1 0x1 ADD SWAP1 PUSH2 0x631 JUMP JUMPDEST POP POP POP POP SWAP1 POP SWAP1 JUMP JUMPDEST PUSH1 0x4 PUSH1 0x0 SWAP1 SLOAD SWAP1 PUSH2 0x100 EXP SWAP1 DIV PUSH20 0xFFFFFFFFFFFFFFFFFFFFFFFFFFFFFFFFFFFFFFFF AND DUP2 JUMP JUMPDEST PUSH1 0x0 DUP2 DUP4 PUSH1 0x40 MLOAD PUSH1 0x20 ADD PUSH2 0x721 SWAP3 SWAP2 SWAP1 PUSH2 0xD78 JUMP JUMPDEST PUSH1 0x40 MLOAD PUSH1 0x20 DUP2 DUP4 SUB SUB DUP2 MSTORE SWAP1 PUSH1 0x40 MSTORE DUP1 MLOAD SWAP1 PUSH1 0x20 ADD KECCAK256 SWAP1 POP SWAP3 SWAP2 POP POP JUMP JUMPDEST PUSH1 0x0 DUP3 DUP3 MSTORE PUSH1 0x20 DUP3 ADD SWAP1 POP SWAP3 SWAP2 POP POP JUMP JUMPDEST PUSH32 0x546865204574682073656E74206D757374206265206174206C6561737420302E PUSH1 0x0 DUP3 ADD MSTORE PUSH32 0x3031000000000000000000000000000000000000000000000000000000000000 PUSH1 0x20 DUP3 ADD MSTORE POP JUMP JUMPDEST PUSH1 0x0 PUSH2 0x7AC PUSH1 0x22 DUP4 PUSH2 0x73F JUMP JUMPDEST SWAP2 POP PUSH2 0x7B7 DUP3 PUSH2 0x750 JUMP JUMPDEST PUSH1 0x40 DUP3 ADD SWAP1 POP SWAP2 SWAP1 POP JUMP JUMPDEST PUSH1 0x0 PUSH1 0x20 DUP3 ADD SWAP1 POP DUP2 DUP2 SUB PUSH1 0x0 DUP4 ADD MSTORE PUSH2 0x7DB DUP2 PUSH2 0x79F JUMP JUMPDEST SWAP1 POP SWAP2 SWAP1 POP JUMP JUMPDEST PUSH1 0x0 DUP2 MLOAD SWAP1 POP SWAP2 SWAP1 POP JUMP JUMPDEST PUSH1 0x0 JUMPDEST DUP4 DUP2 LT ISZERO PUSH2 0x80B JUMPI DUP1 DUP3 ADD MLOAD DUP2 DUP5 ADD MSTORE PUSH1 0x20 DUP2 ADD SWAP1 POP PUSH2 0x7F0 JUMP JUMPDEST PUSH1 0x0 DUP5 DUP5 ADD MSTORE POP POP POP POP JUMP JUMPDEST PUSH1 0x0 PUSH1 0x1F NOT PUSH1 0x1F DUP4 ADD AND SWAP1 POP SWAP2 SWAP1 POP JUMP JUMPDEST PUSH1 0x0 PUSH2 0x833 DUP3 PUSH2 0x7E2 JUMP JUMPDEST PUSH2 0x83D DUP2 DUP6 PUSH2 0x73F JUMP JUMPDEST SWAP4 POP PUSH2 0x84D DUP2 DUP6 PUSH1 0x20 DUP7 ADD PUSH2 0x7ED JUMP JUMPDEST PUSH2 0x856 DUP2 PUSH2 0x817 JUMP JUMPDEST DUP5 ADD SWAP2 POP POP SWAP3 SWAP2 POP POP JUMP JUMPDEST PUSH1 0x0 PUSH1 0x20 DUP3 ADD SWAP1 POP DUP2 DUP2 SUB PUSH1 0x0 DUP4 ADD MSTORE PUSH2 0x87B DUP2 DUP5 PUSH2 0x828 JUMP JUMPDEST SWAP1 POP SWAP3 SWAP2 POP POP JUMP JUMPDEST PUSH1 0x0 DUP1 REVERT JUMPDEST PUSH1 0x0 DUP1 REVERT JUMPDEST PUSH1 0x0 DUP1 REVERT JUMPDEST PUSH1 0x0 DUP1 REVERT JUMPDEST PUSH1 0x0 DUP1 REVERT JUMPDEST PUSH1 0x0 DUP1 DUP4 PUSH1 0x1F DUP5 ADD SLT PUSH2 0x8B2 JUMPI PUSH2 0x8B1 PUSH2 0x88D JUMP JUMPDEST JUMPDEST DUP3 CALLDATALOAD SWAP1 POP PUSH8 0xFFFFFFFFFFFFFFFF DUP2 GT ISZERO PUSH2 0x8CF JUMPI PUSH2 0x8CE PUSH2 0x892 JUMP JUMPDEST JUMPDEST PUSH1 0x20 DUP4 ADD SWAP2 POP DUP4 PUSH1 0x1 DUP3 MUL DUP4 ADD GT ISZERO PUSH2 0x8EB JUMPI PUSH2 0x8EA PUSH2 0x897 JUMP JUMPDEST JUMPDEST SWAP3 POP SWAP3 SWAP1 POP JUMP JUMPDEST PUSH1 0x0 DUP1 PUSH1 0x20 DUP4 DUP6 SUB SLT ISZERO PUSH2 0x909 JUMPI PUSH2 0x908 PUSH2 0x883 JUMP JUMPDEST JUMPDEST PUSH1 0x0 DUP4 ADD CALLDATALOAD PUSH8 0xFFFFFFFFFFFFFFFF DUP2 GT ISZERO PUSH2 0x927 JUMPI PUSH2 0x926 PUSH2 0x888 JUMP JUMPDEST JUMPDEST PUSH2 0x933 DUP6 DUP3 DUP7 ADD PUSH2 0x89C JUMP JUMPDEST SWAP3 POP SWAP3 POP POP SWAP3 POP SWAP3 SWAP1 POP JUMP JUMPDEST PUSH1 0x0 DUP2 SWAP1 POP SWAP2 SWAP1 POP JUMP JUMPDEST PUSH2 0x952 DUP2 PUSH2 0x93F JUMP JUMPDEST DUP3 MSTORE POP POP JUMP JUMPDEST PUSH1 0x0 PUSH1 0x20 DUP3 ADD SWAP1 POP PUSH2 0x96D PUSH1 0x0 DUP4 ADD DUP5 PUSH2 0x949 JUMP JUMPDEST SWAP3 SWAP2 POP POP JUMP JUMPDEST PUSH1 0x0 DUP2 MLOAD SWAP1 POP SWAP2 SWAP1 POP JUMP JUMPDEST PUSH1 0x0 DUP3 DUP3 MSTORE PUSH1 0x20 DUP3 ADD SWAP1 POP SWAP3 SWAP2 POP POP JUMP JUMPDEST PUSH1 0x0 DUP2 SWAP1 POP PUSH1 0x20 DUP3 ADD SWAP1 POP SWAP2 SWAP1 POP JUMP JUMPDEST PUSH1 0x0 DUP3 DUP3 MSTORE PUSH1 0x20 DUP3 ADD SWAP1 POP SWAP3 SWAP2 POP POP JUMP JUMPDEST PUSH1 0x0 PUSH2 0x9BB DUP3 PUSH2 0x7E2 JUMP JUMPDEST PUSH2 0x9C5 DUP2 DUP6 PUSH2 0x99F JUMP JUMPDEST SWAP4 POP PUSH2 0x9D5 DUP2 DUP6 PUSH1 0x20 DUP7 ADD PUSH2 0x7ED JUMP JUMPDEST PUSH2 0x9DE DUP2 PUSH2 0x817 JUMP JUMPDEST DUP5 ADD SWAP2 POP POP SWAP3 SWAP2 POP POP JUMP JUMPDEST PUSH1 0x0 PUSH2 0x9F5 DUP4 DUP4 PUSH2 0x9B0 JUMP JUMPDEST SWAP1 POP SWAP3 SWAP2 POP POP JUMP JUMPDEST PUSH1 0x0 PUSH1 0x20 DUP3 ADD SWAP1 POP SWAP2 SWAP1 POP JUMP JUMPDEST PUSH1 0x0 PUSH2 0xA15 DUP3 PUSH2 0x973 JUMP JUMPDEST PUSH2 0xA1F DUP2 DUP6 PUSH2 0x97E JUMP JUMPDEST SWAP4 POP DUP4 PUSH1 0x20 DUP3 MUL DUP6 ADD PUSH2 0xA31 DUP6 PUSH2 0x98F JUMP JUMPDEST DUP1 PUSH1 0x0 JUMPDEST DUP6 DUP2 LT ISZERO PUSH2 0xA6D JUMPI DUP5 DUP5 SUB DUP10 MSTORE DUP2 MLOAD PUSH2 0xA4E DUP6 DUP3 PUSH2 0x9E9 JUMP JUMPDEST SWAP5 POP PUSH2 0xA59 DUP4 PUSH2 0x9FD JUMP JUMPDEST SWAP3 POP PUSH1 0x20 DUP11 ADD SWAP10 POP POP PUSH1 0x1 DUP2 ADD SWAP1 POP PUSH2 0xA35 JUMP JUMPDEST POP DUP3 SWAP8 POP DUP8 SWAP6 POP POP POP POP POP POP SWAP3 SWAP2 POP POP JUMP JUMPDEST PUSH1 0x0 PUSH1 0x20 DUP3 ADD SWAP1 POP DUP2 DUP2 SUB PUSH1 0x0 DUP4 ADD MSTORE PUSH2 0xA99 DUP2 DUP5 PUSH2 0xA0A JUMP JUMPDEST SWAP1 POP SWAP3 SWAP2 POP POP JUMP JUMPDEST PUSH1 0x0 PUSH20 0xFFFFFFFFFFFFFFFFFFFFFFFFFFFFFFFFFFFFFFFF DUP3 AND SWAP1 POP SWAP2 SWAP1 POP JUMP JUMPDEST PUSH1 0x0 PUSH2 0xACC DUP3 PUSH2 0xAA1 JUMP JUMPDEST SWAP1 POP SWAP2 SWAP1 POP JUMP JUMPDEST PUSH2 0xADC DUP2 PUSH2 0xAC1 JUMP JUMPDEST DUP3 MSTORE POP POP JUMP JUMPDEST PUSH1 0x0 PUSH1 0x20 DUP3 ADD SWAP1 POP PUSH2 0xAF7 PUSH1 0x0 DUP4 ADD DUP5 PUSH2 0xAD3 JUMP JUMPDEST SWAP3 SWAP2 POP POP JUMP JUMPDEST PUSH32 0x4E487B7100000000000000000000000000000000000000000000000000000000 PUSH1 0x0 MSTORE PUSH1 0x22 PUSH1 0x4 MSTORE PUSH1 0x24 PUSH1 0x0 REVERT JUMPDEST PUSH1 0x0 PUSH1 0x2 DUP3 DIV SWAP1 POP PUSH1 0x1 DUP3 AND DUP1 PUSH2 0xB44 JUMPI PUSH1 0x7F DUP3 AND SWAP2 POP JUMPDEST PUSH1 0x20 DUP3 LT DUP2 SUB PUSH2 0xB57 JUMPI PUSH2 0xB56 PUSH2 0xAFD JUMP JUMPDEST JUMPDEST POP SWAP2 SWAP1 POP JUMP JUMPDEST PUSH32 0x546865207175697A2068617320616C7265616479206265656E20677565737365 PUSH1 0x0 DUP3 ADD MSTORE PUSH32 0x6421000000000000000000000000000000000000000000000000000000000000 PUSH1 0x20 DUP3 ADD MSTORE POP JUMP JUMPDEST PUSH1 0x0 PUSH2 0xBB9 PUSH1 0x22 DUP4 PUSH2 0x73F JUMP JUMPDEST SWAP2 POP PUSH2 0xBC4 DUP3 PUSH2 0xB5D JUMP JUMPDEST PUSH1 0x40 DUP3 ADD SWAP1 POP SWAP2 SWAP1 POP JUMP JUMPDEST PUSH1 0x0 PUSH1 0x20 DUP3 ADD SWAP1 POP DUP2 DUP2 SUB PUSH1 0x0 DUP4 ADD MSTORE PUSH2 0xBE8 DUP2 PUSH2 0xBAC JUMP JUMPDEST SWAP1 POP SWAP2 SWAP1 POP JUMP JUMPDEST PUSH32 0x596F7520617265206E6F74207468652077696E6E657200000000000000000000 PUSH1 0x0 DUP3 ADD MSTORE POP JUMP JUMPDEST PUSH1 0x0 PUSH2 0xC25 PUSH1 0x16 DUP4 PUSH2 0x73F JUMP JUMPDEST SWAP2 POP PUSH2 0xC30 DUP3 PUSH2 0xBEF JUMP JUMPDEST PUSH1 0x20 DUP3 ADD SWAP1 POP SWAP2 SWAP1 POP JUMP JUMPDEST PUSH1 0x0 PUSH1 0x20 DUP3 ADD SWAP1 POP DUP2 DUP2 SUB PUSH1 0x0 DUP4 ADD MSTORE PUSH2 0xC54 DUP2 PUSH2 0xC18 JUMP JUMPDEST SWAP1 POP SWAP2 SWAP1 POP JUMP JUMPDEST PUSH32 0x546865207175697A2072657761726420706F6F6C20697320656D707479000000 PUSH1 0x0 DUP3 ADD MSTORE POP JUMP JUMPDEST PUSH1 0x0 PUSH2 0xC91 PUSH1 0x1D DUP4 PUSH2 0x73F JUMP JUMPDEST SWAP2 POP PUSH2 0xC9C DUP3 PUSH2 0xC5B JUMP JUMPDEST PUSH1 0x20 DUP3 ADD SWAP1 POP SWAP2 SWAP1 POP JUMP JUMPDEST PUSH1 0x0 PUSH1 0x20 DUP3 ADD SWAP1 POP DUP2 DUP2 SUB PUSH1 0x0 DUP4 ADD MSTORE PUSH2 0xCC0 DUP2 PUSH2 0xC84 JUMP JUMPDEST SWAP1 POP SWAP2 SWAP1 POP JUMP JUMPDEST PUSH1 0x0 DUP2 SWAP1 POP SWAP3 SWAP2 POP POP JUMP JUMPDEST POP JUMP JUMPDEST PUSH1 0x0 PUSH2 0xCE2 PUSH1 0x0 DUP4 PUSH2 0xCC7 JUMP JUMPDEST SWAP2 POP PUSH2 0xCED DUP3 PUSH2 0xCD2 JUMP JUMPDEST PUSH1 0x0 DUP3 ADD SWAP1 POP SWAP2 SWAP1 POP JUMP JUMPDEST PUSH1 0x0 PUSH2 0xD03 DUP3 PUSH2 0xCD5 JUMP JUMPDEST SWAP2 POP DUP2 SWAP1 POP SWAP2 SWAP1 POP JUMP JUMPDEST PUSH32 0x4E487B7100000000000000000000000000000000000000000000000000000000 PUSH1 0x0 MSTORE PUSH1 0x1 PUSH1 0x4 MSTORE PUSH1 0x24 PUSH1 0x0 REVERT JUMPDEST PUSH1 0x0 DUP2 SWAP1 POP SWAP3 SWAP2 POP POP JUMP JUMPDEST PUSH1 0x0 PUSH2 0xD52 DUP3 PUSH2 0x7E2 JUMP JUMPDEST PUSH2 0xD5C DUP2 DUP6 PUSH2 0xD3C JUMP JUMPDEST SWAP4 POP PUSH2 0xD6C DUP2 DUP6 PUSH1 0x20 DUP7 ADD PUSH2 0x7ED JUMP JUMPDEST DUP1 DUP5 ADD SWAP2 POP POP SWAP3 SWAP2 POP POP JUMP JUMPDEST PUSH1 0x0 PUSH2 0xD84 DUP3 DUP6 PUSH2 0xD47 JUMP JUMPDEST SWAP2 POP PUSH2 0xD90 DUP3 DUP5 PUSH2 0xD47 JUMP JUMPDEST SWAP2 POP DUP2 SWAP1 POP SWAP4 SWAP3 POP POP POP JUMP INVALID LOG2 PUSH5 0x6970667358 0x22 SLT KECCAK256 SLT BALANCE PUSH16 0xD9FBE2C68EDAB9A26A8B4E4C93A56291 MUL 0xD2 0xE5 0xCF SSTORE 0x4E 0xC2 0xC6 0xBA OR PUSH26 0x91E64736F6C63430008180033A2646970667358221220EE49BF INVALID SHL MSTORE SSTORE DUP15 0xB8 DUP7 PUSH8 0x8ADD1F35D0F18FC7 0xE2 0xB2 PUSH28 0x98ECA80E7117D8A2212464736F6C6343000818003300000000000000 "
        },
        "methodIdentifiers": {
          "createQuiz(string,string,string[],string)": "005bff80",
          "getAllQuizes()": "c0adff7d"
        }
      }
    }
  }
}